{
  "_format": "hh-sol-artifact-1",
  "contractName": "NFTMarketplace",
  "sourceName": "contracts/NFTMarketplace.sol",
  "abi": [
    {
      "inputs": [],
      "stateMutability": "nonpayable",
      "type": "constructor"
    },
    {
      "anonymous": false,
      "inputs": [
        {
          "indexed": true,
          "internalType": "address",
          "name": "owner",
          "type": "address"
        },
        {
          "indexed": true,
          "internalType": "address",
          "name": "approved",
          "type": "address"
        },
        {
          "indexed": true,
          "internalType": "uint256",
          "name": "tokenId",
          "type": "uint256"
        }
      ],
      "name": "Approval",
      "type": "event"
    },
    {
      "anonymous": false,
      "inputs": [
        {
          "indexed": true,
          "internalType": "address",
          "name": "owner",
          "type": "address"
        },
        {
          "indexed": true,
          "internalType": "address",
          "name": "operator",
          "type": "address"
        },
        {
          "indexed": false,
          "internalType": "bool",
          "name": "approved",
          "type": "bool"
        }
      ],
      "name": "ApprovalForAll",
      "type": "event"
    },
    {
      "anonymous": false,
      "inputs": [
        {
          "indexed": true,
          "internalType": "uint256",
          "name": "tokenId",
          "type": "uint256"
        },
        {
          "indexed": false,
          "internalType": "address",
          "name": "seller",
          "type": "address"
        },
        {
          "indexed": false,
          "internalType": "address",
          "name": "owner",
          "type": "address"
        },
        {
          "indexed": false,
          "internalType": "uint256",
          "name": "price",
          "type": "uint256"
        },
        {
          "indexed": false,
          "internalType": "bool",
          "name": "sold",
          "type": "bool"
        },
        {
          "indexed": false,
          "internalType": "uint256",
          "name": "played",
          "type": "uint256"
        }
      ],
      "name": "MarketItemCreated",
      "type": "event"
    },
    {
      "anonymous": false,
      "inputs": [
        {
          "indexed": true,
          "internalType": "address",
          "name": "from",
          "type": "address"
        },
        {
          "indexed": true,
          "internalType": "address",
          "name": "to",
          "type": "address"
        },
        {
          "indexed": true,
          "internalType": "uint256",
          "name": "tokenId",
          "type": "uint256"
        }
      ],
      "name": "Transfer",
      "type": "event"
    },
    {
      "inputs": [
        {
          "internalType": "uint256",
          "name": "",
          "type": "uint256"
        }
      ],
      "name": "NFTusage",
      "outputs": [
        {
          "internalType": "uint256",
          "name": "_value",
          "type": "uint256"
        }
      ],
      "stateMutability": "view",
      "type": "function"
    },
    {
      "inputs": [
        {
          "internalType": "address",
          "name": "to",
          "type": "address"
        },
        {
          "internalType": "uint256",
          "name": "tokenId",
          "type": "uint256"
        }
      ],
      "name": "approve",
      "outputs": [],
      "stateMutability": "nonpayable",
      "type": "function"
    },
    {
      "inputs": [
        {
          "internalType": "address",
          "name": "owner",
          "type": "address"
        }
      ],
      "name": "balanceOf",
      "outputs": [
        {
          "internalType": "uint256",
          "name": "",
          "type": "uint256"
        }
      ],
      "stateMutability": "view",
      "type": "function"
    },
    {
      "inputs": [
        {
          "internalType": "address",
          "name": "_nftContract",
          "type": "address"
        },
        {
          "internalType": "address",
          "name": "_user",
          "type": "address"
        }
      ],
      "name": "checkNFTowner",
      "outputs": [
        {
          "internalType": "bool",
          "name": "",
          "type": "bool"
        }
      ],
      "stateMutability": "view",
      "type": "function"
    },
    {
      "inputs": [
        {
          "internalType": "uint256",
          "name": "tokenId",
          "type": "uint256"
        }
      ],
      "name": "createMarketSale",
      "outputs": [],
      "stateMutability": "payable",
      "type": "function"
    },
    {
      "inputs": [
        {
          "internalType": "string",
          "name": "tokenURI",
          "type": "string"
        },
        {
          "internalType": "uint256",
          "name": "price",
          "type": "uint256"
        }
      ],
      "name": "createToken",
      "outputs": [
        {
          "internalType": "uint256",
          "name": "",
          "type": "uint256"
        }
      ],
      "stateMutability": "payable",
      "type": "function"
    },
    {
      "inputs": [],
      "name": "fetchItemsListed",
      "outputs": [
        {
          "components": [
            {
              "internalType": "uint256",
              "name": "tokenId",
              "type": "uint256"
            },
            {
              "internalType": "address payable",
              "name": "seller",
              "type": "address"
            },
            {
              "internalType": "address payable",
              "name": "owner",
              "type": "address"
            },
            {
              "internalType": "uint256",
              "name": "price",
              "type": "uint256"
            },
            {
              "internalType": "bool",
              "name": "sold",
              "type": "bool"
            },
            {
              "internalType": "uint256",
              "name": "played",
              "type": "uint256"
            }
          ],
          "internalType": "struct NFTMarketplace.MarketItem[]",
          "name": "",
          "type": "tuple[]"
        }
      ],
      "stateMutability": "view",
      "type": "function"
    },
    {
      "inputs": [],
      "name": "fetchMarketItems",
      "outputs": [
        {
          "components": [
            {
              "internalType": "uint256",
              "name": "tokenId",
              "type": "uint256"
            },
            {
              "internalType": "address payable",
              "name": "seller",
              "type": "address"
            },
            {
              "internalType": "address payable",
              "name": "owner",
              "type": "address"
            },
            {
              "internalType": "uint256",
              "name": "price",
              "type": "uint256"
            },
            {
              "internalType": "bool",
              "name": "sold",
              "type": "bool"
            },
            {
              "internalType": "uint256",
              "name": "played",
              "type": "uint256"
            }
          ],
          "internalType": "struct NFTMarketplace.MarketItem[]",
          "name": "",
          "type": "tuple[]"
        }
      ],
      "stateMutability": "view",
      "type": "function"
    },
    {
      "inputs": [],
      "name": "fetchMyNFTs",
      "outputs": [
        {
          "components": [
            {
              "internalType": "uint256",
              "name": "tokenId",
              "type": "uint256"
            },
            {
              "internalType": "address payable",
              "name": "seller",
              "type": "address"
            },
            {
              "internalType": "address payable",
              "name": "owner",
              "type": "address"
            },
            {
              "internalType": "uint256",
              "name": "price",
              "type": "uint256"
            },
            {
              "internalType": "bool",
              "name": "sold",
              "type": "bool"
            },
            {
              "internalType": "uint256",
              "name": "played",
              "type": "uint256"
            }
          ],
          "internalType": "struct NFTMarketplace.MarketItem[]",
          "name": "",
          "type": "tuple[]"
        }
      ],
      "stateMutability": "view",
      "type": "function"
    },
    {
      "inputs": [
        {
          "internalType": "uint256",
          "name": "tokenId",
          "type": "uint256"
        }
      ],
      "name": "getApproved",
      "outputs": [
        {
          "internalType": "address",
          "name": "",
          "type": "address"
        }
      ],
      "stateMutability": "view",
      "type": "function"
    },
    {
      "inputs": [],
      "name": "getListingPrice",
      "outputs": [
        {
          "internalType": "uint256",
          "name": "",
          "type": "uint256"
        }
      ],
      "stateMutability": "view",
      "type": "function"
    },
    {
      "inputs": [
        {
          "internalType": "uint256",
          "name": "_tokenId",
          "type": "uint256"
        }
      ],
      "name": "getNftUsage",
      "outputs": [
        {
          "internalType": "uint256",
          "name": "",
          "type": "uint256"
        }
      ],
      "stateMutability": "view",
      "type": "function"
    },
    {
      "inputs": [
        {
          "internalType": "address",
          "name": "owner",
          "type": "address"
        },
        {
          "internalType": "address",
          "name": "operator",
          "type": "address"
        }
      ],
      "name": "isApprovedForAll",
      "outputs": [
        {
          "internalType": "bool",
          "name": "",
          "type": "bool"
        }
      ],
      "stateMutability": "view",
      "type": "function"
    },
    {
      "inputs": [],
      "name": "name",
      "outputs": [
        {
          "internalType": "string",
          "name": "",
          "type": "string"
        }
      ],
      "stateMutability": "view",
      "type": "function"
    },
    {
      "inputs": [
        {
          "internalType": "uint256",
          "name": "tokenId",
          "type": "uint256"
        }
      ],
      "name": "ownerOf",
      "outputs": [
        {
          "internalType": "address",
          "name": "",
          "type": "address"
        }
      ],
      "stateMutability": "view",
      "type": "function"
    },
    {
      "inputs": [
        {
          "internalType": "uint256",
          "name": "tokenId",
          "type": "uint256"
        },
        {
          "internalType": "uint256",
          "name": "price",
          "type": "uint256"
        }
      ],
      "name": "resellToken",
      "outputs": [],
      "stateMutability": "payable",
      "type": "function"
    },
    {
      "inputs": [
        {
          "internalType": "address",
          "name": "from",
          "type": "address"
        },
        {
          "internalType": "address",
          "name": "to",
          "type": "address"
        },
        {
          "internalType": "uint256",
          "name": "tokenId",
          "type": "uint256"
        }
      ],
      "name": "safeTransferFrom",
      "outputs": [],
      "stateMutability": "nonpayable",
      "type": "function"
    },
    {
      "inputs": [
        {
          "internalType": "address",
          "name": "from",
          "type": "address"
        },
        {
          "internalType": "address",
          "name": "to",
          "type": "address"
        },
        {
          "internalType": "uint256",
          "name": "tokenId",
          "type": "uint256"
        },
        {
          "internalType": "bytes",
          "name": "_data",
          "type": "bytes"
        }
      ],
      "name": "safeTransferFrom",
      "outputs": [],
      "stateMutability": "nonpayable",
      "type": "function"
    },
    {
      "inputs": [
        {
          "internalType": "address",
          "name": "operator",
          "type": "address"
        },
        {
          "internalType": "bool",
          "name": "approved",
          "type": "bool"
        }
      ],
      "name": "setApprovalForAll",
      "outputs": [],
      "stateMutability": "nonpayable",
      "type": "function"
    },
    {
      "inputs": [
        {
          "internalType": "bytes4",
          "name": "interfaceId",
          "type": "bytes4"
        }
      ],
      "name": "supportsInterface",
      "outputs": [
        {
          "internalType": "bool",
          "name": "",
          "type": "bool"
        }
      ],
      "stateMutability": "view",
      "type": "function"
    },
    {
      "inputs": [],
      "name": "symbol",
      "outputs": [
        {
          "internalType": "string",
          "name": "",
          "type": "string"
        }
      ],
      "stateMutability": "view",
      "type": "function"
    },
    {
      "inputs": [
        {
          "internalType": "uint256",
          "name": "tokenId",
          "type": "uint256"
        }
      ],
      "name": "tokenURI",
      "outputs": [
        {
          "internalType": "string",
          "name": "",
          "type": "string"
        }
      ],
      "stateMutability": "view",
      "type": "function"
    },
    {
      "inputs": [
        {
          "internalType": "address",
          "name": "from",
          "type": "address"
        },
        {
          "internalType": "address",
          "name": "to",
          "type": "address"
        },
        {
          "internalType": "uint256",
          "name": "tokenId",
          "type": "uint256"
        }
      ],
      "name": "transferFrom",
      "outputs": [],
      "stateMutability": "nonpayable",
      "type": "function"
    },
    {
      "inputs": [
        {
          "internalType": "uint256",
          "name": "_listingPrice",
          "type": "uint256"
        }
      ],
      "name": "updateListingPrice",
      "outputs": [],
      "stateMutability": "payable",
      "type": "function"
    },
    {
      "inputs": [
        {
          "internalType": "uint256",
          "name": "_tokenId",
          "type": "uint256"
        }
      ],
      "name": "useNFT",
      "outputs": [],
      "stateMutability": "nonpayable",
      "type": "function"
    }
  ],
  "bytecode": "0x60806040526658d15e176280006009553480156200001c57600080fd5b50604080518082018252600e81526d466f6c696f706c6179204e46547360901b6020808301918252835180850190945260048452631193919560e21b9084015281519192916200006f91600091620000a0565b50805162000085906001906020840190620000a0565b5050600a80546001600160a01b031916331790555062000183565b828054620000ae9062000146565b90600052602060002090601f016020900481019282620000d257600085556200011d565b82601f10620000ed57805160ff19168380011785556200011d565b828001600101855582156200011d579182015b828111156200011d57825182559160200191906001019062000100565b506200012b9291506200012f565b5090565b5b808211156200012b576000815560010162000130565b600181811c908216806200015b57607f821691505b602082108114156200017d57634e487b7160e01b600052602260045260246000fd5b50919050565b61254c80620001936000396000f3fe6080604052600436106101665760003560e01c80636c4f7c27116100d1578063ae677aa31161008a578063c87b56dd11610064578063c87b56dd14610412578063e1676d0c14610432578063e219fc7514610452578063e985e9c51461046557600080fd5b8063ae677aa3146103cc578063b88d4fde146103df578063be9af536146103ff57600080fd5b80636c4f7c271461030757806370a082311461033457806372b3b6201461035457806395d89b4114610367578063a101e72d1461037c578063a22cb465146103ac57600080fd5b8063202e374011610123578063202e37401461025d57806323b872dd1461027257806342842e0e1461029257806345f8fa80146102b257806355b9d443146102c75780636352211e146102e757600080fd5b806301ffc9a71461016b57806306fdde03146101a0578063081812fc146101c2578063095ea7b3146101fa5780630f08efe01461021c57806312e855851461023e575b600080fd5b34801561017757600080fd5b5061018b6101863660046120eb565b6104ae565b60405190151581526020015b60405180910390f35b3480156101ac57600080fd5b506101b5610500565b60405161019791906122e8565b3480156101ce57600080fd5b506101e26101dd366004612179565b610592565b6040516001600160a01b039091168152602001610197565b34801561020657600080fd5b5061021a6102153660046120c2565b61061f565b005b34801561022857600080fd5b50610231610735565b6040516101979190612262565b34801561024a57600080fd5b506009545b604051908152602001610197565b34801561026957600080fd5b506102316108d3565b34801561027e57600080fd5b5061021a61028d366004611fd4565b610aaf565b34801561029e57600080fd5b5061021a6102ad366004611fd4565b610ae0565b3480156102be57600080fd5b50610231610afb565b3480156102d357600080fd5b5061021a6102e2366004612179565b610cd7565b3480156102f357600080fd5b506101e2610302366004612179565b610d0d565b34801561031357600080fd5b5061024f610322366004612179565b600c6020526000908152604090205481565b34801561034057600080fd5b5061024f61034f366004611f88565b610d84565b61024f610362366004612123565b610e0b565b34801561037357600080fd5b506101b5610e4d565b34801561038857600080fd5b5061024f610397366004612179565b6000908152600b602052604090206005015490565b3480156103b857600080fd5b5061021a6103c7366004612088565b610e5c565b61021a6103da366004612179565b610e6b565b3480156103eb57600080fd5b5061021a6103fa36600461200f565b610ee3565b61021a61040d366004612179565b610f1b565b34801561041e57600080fd5b506101b561042d366004612179565b611083565b34801561043e57600080fd5b5061018b61044d366004611fa2565b6111fa565b61021a6104603660046121a9565b61128e565b34801561047157600080fd5b5061018b610480366004611fa2565b6001600160a01b03918216600090815260056020908152604080832093909416825291909152205460ff1690565b60006001600160e01b031982166380ac58cd60e01b14806104df57506001600160e01b03198216635b5e139f60e01b145b806104fa57506301ffc9a760e01b6001600160e01b03198316145b92915050565b60606000805461050f90612451565b80601f016020809104026020016040519081016040528092919081815260200182805461053b90612451565b80156105885780601f1061055d57610100808354040283529160200191610588565b820191906000526020600020905b81548152906001019060200180831161056b57829003601f168201915b5050505050905090565b600061059d82611386565b6106035760405162461bcd60e51b815260206004820152602c60248201527f4552433732313a20617070726f76656420717565727920666f72206e6f6e657860448201526b34b9ba32b73a103a37b5b2b760a11b60648201526084015b60405180910390fd5b506000908152600460205260409020546001600160a01b031690565b600061062a82610d0d565b9050806001600160a01b0316836001600160a01b031614156106985760405162461bcd60e51b815260206004820152602160248201527f4552433732313a20617070726f76616c20746f2063757272656e74206f776e656044820152603960f91b60648201526084016105fa565b336001600160a01b03821614806106b457506106b48133610480565b6107265760405162461bcd60e51b815260206004820152603860248201527f4552433732313a20617070726f76652063616c6c6572206973206e6f74206f7760448201527f6e6572206e6f7220617070726f76656420666f7220616c6c000000000000000060648201526084016105fa565b61073083836113a3565b505050565b6060600061074260075490565b9050600061074f60085490565b60075461075c919061240e565b90506000808267ffffffffffffffff81111561078857634e487b7160e01b600052604160045260246000fd5b6040519080825280602002602001820160405280156107c157816020015b6107ae611e13565b8152602001906001900390816107a65790505b50905060005b848110156108ca5730600b60006107df8460016123e2565b81526020810191909152604001600020600201546001600160a01b031614156108b857600061080f8260016123e2565b6000818152600b6020908152604091829020825160c0810184528154815260018201546001600160a01b039081169382019390935260028201549092169282019290925260038201546060820152600482015460ff1615156080820152600582015460a08201528551929350909185908790811061089d57634e487b7160e01b600052603260045260246000fd5b60209081029190910101526108b36001866123e2565b945050505b806108c28161248c565b9150506107c7565b50949350505050565b606060006108e060075490565b905060008060005b838110156109435733600b60006109008460016123e2565b81526020810191909152604001600020600201546001600160a01b031614156109315761092e6001846123e2565b92505b8061093b8161248c565b9150506108e8565b5060008267ffffffffffffffff81111561096d57634e487b7160e01b600052604160045260246000fd5b6040519080825280602002602001820160405280156109a657816020015b610993611e13565b81526020019060019003908161098b5790505b50905060005b848110156108ca5733600b60006109c48460016123e2565b81526020810191909152604001600020600201546001600160a01b03161415610a9d5760006109f48260016123e2565b6000818152600b6020908152604091829020825160c0810184528154815260018201546001600160a01b039081169382019390935260028201549092169282019290925260038201546060820152600482015460ff1615156080820152600582015460a082015285519293509091859087908110610a8257634e487b7160e01b600052603260045260246000fd5b6020908102919091010152610a986001866123e2565b945050505b80610aa78161248c565b9150506109ac565b610ab93382611411565b610ad55760405162461bcd60e51b81526004016105fa90612391565b6107308383836114f7565b61073083838360405180602001604052806000815250610ee3565b60606000610b0860075490565b905060008060005b83811015610b6b5733600b6000610b288460016123e2565b81526020810191909152604001600020600101546001600160a01b03161415610b5957610b566001846123e2565b92505b80610b638161248c565b915050610b10565b5060008267ffffffffffffffff811115610b9557634e487b7160e01b600052604160045260246000fd5b604051908082528060200260200182016040528015610bce57816020015b610bbb611e13565b815260200190600190039081610bb35790505b50905060005b848110156108ca5733600b6000610bec8460016123e2565b81526020810191909152604001600020600101546001600160a01b03161415610cc5576000610c1c8260016123e2565b6000818152600b6020908152604091829020825160c0810184528154815260018201546001600160a01b039081169382019390935260028201549092169282019290925260038201546060820152600482015460ff1615156080820152600582015460a082015285519293509091859087908110610caa57634e487b7160e01b600052603260045260246000fd5b6020908102919091010152610cc06001866123e2565b945050505b80610ccf8161248c565b915050610bd4565b6000818152600b60205260408120600501805491610cf48361248c565b909155506000918252600b602052604090912060050155565b6000818152600260205260408120546001600160a01b0316806104fa5760405162461bcd60e51b815260206004820152602960248201527f4552433732313a206f776e657220717565727920666f72206e6f6e657869737460448201526832b73a103a37b5b2b760b91b60648201526084016105fa565b60006001600160a01b038216610def5760405162461bcd60e51b815260206004820152602a60248201527f4552433732313a2062616c616e636520717565727920666f7220746865207a65604482015269726f206164647265737360b01b60648201526084016105fa565b506001600160a01b031660009081526003602052604090205490565b6000610e1b600780546001019055565b6000610e2660075490565b9050610e323382611693565b610e3c81856117c6565b610e468184611851565b9392505050565b60606001805461050f90612451565b610e673383836119bc565b5050565b600a546001600160a01b03163314610ede5760405162461bcd60e51b815260206004820152603060248201527f4f6e6c79206d61726b6574706c616365206f776e65722063616e20757064617460448201526f32903634b9ba34b73390383934b1b29760811b60648201526084016105fa565b600955565b610eed3383611411565b610f095760405162461bcd60e51b81526004016105fa90612391565b610f1584848484611a8b565b50505050565b6000818152600b6020526040902060030154348114610fa4576040805162461bcd60e51b81526020600482015260248101919091527f506c65617365207375626d6974207468652061736b696e67207072696365206960448201527f6e206f7264657220746f20636f6d706c6574652074686520707572636861736560648201526084016105fa565b6000828152600b602052604090206002810180546001600160a01b0319908116331790915560048201805460ff1916600190811790915590910180549091169055610ff3600880546001019055565b610ffe3033846114f7565b600a546009546040516001600160a01b039092169181156108fc0291906000818181858888f1935050505015801561103a573d6000803e3d6000fd5b506000828152600b60205260408082206001015490516001600160a01b03909116913480156108fc02929091818181858888f19350505050158015610730573d6000803e3d6000fd5b606061108e82611386565b6110f45760405162461bcd60e51b815260206004820152603160248201527f45524337323155524953746f726167653a2055524920717565727920666f72206044820152703737b732bc34b9ba32b73a103a37b5b2b760791b60648201526084016105fa565b6000828152600660205260408120805461110d90612451565b80601f016020809104026020016040519081016040528092919081815260200182805461113990612451565b80156111865780601f1061115b57610100808354040283529160200191611186565b820191906000526020600020905b81548152906001019060200180831161116957829003601f168201915b5050505050905060006111a460408051602081019091526000815290565b90508051600014156111b7575092915050565b8151156111e95780826040516020016111d19291906121f6565b60405160208183030381529060405292505050919050565b6111f284611abe565b949350505050565b6040516370a0823160e01b81526001600160a01b0382811660048301526000916001918516906370a082319060240160206040518083038186803b15801561124157600080fd5b505afa158015611255573d6000803e3d6000fd5b505050506040513d601f19601f820116820180604052508101906112799190612191565b10611286575060016104fa565b5060006104fa565b6000828152600b60205260409020600201546001600160a01b0316331461130a5760405162461bcd60e51b815260206004820152602a60248201527f4f6e6c79206974656d206f776e65722063616e20706572666f726d20746869736044820152691037b832b930ba34b7b760b11b60648201526084016105fa565b600954341461132b5760405162461bcd60e51b81526004016105fa9061234d565b6000828152600b6020526040902060048101805460ff19169055600381018290556001810180546001600160a01b03199081163317909155600290910180549091163017905561137b6008611b95565b610e673330846114f7565b6000908152600260205260409020546001600160a01b0316151590565b600081815260046020526040902080546001600160a01b0319166001600160a01b03841690811790915581906113d882610d0d565b6001600160a01b03167f8c5be1e5ebec7d5bd14f71427d1e84f3dd0314c0f7b2291e5b200ac8c7c3b92560405160405180910390a45050565b600061141c82611386565b61147d5760405162461bcd60e51b815260206004820152602c60248201527f4552433732313a206f70657261746f7220717565727920666f72206e6f6e657860448201526b34b9ba32b73a103a37b5b2b760a11b60648201526084016105fa565b600061148883610d0d565b9050806001600160a01b0316846001600160a01b031614806114c35750836001600160a01b03166114b884610592565b6001600160a01b0316145b806111f257506001600160a01b0380821660009081526005602090815260408083209388168352929052205460ff166111f2565b826001600160a01b031661150a82610d0d565b6001600160a01b03161461156e5760405162461bcd60e51b815260206004820152602560248201527f4552433732313a207472616e736665722066726f6d20696e636f72726563742060448201526437bbb732b960d91b60648201526084016105fa565b6001600160a01b0382166115d05760405162461bcd60e51b8152602060048201526024808201527f4552433732313a207472616e7366657220746f20746865207a65726f206164646044820152637265737360e01b60648201526084016105fa565b6115db6000826113a3565b6001600160a01b038316600090815260036020526040812080546001929061160490849061240e565b90915550506001600160a01b03821660009081526003602052604081208054600192906116329084906123e2565b909155505060008181526002602052604080822080546001600160a01b0319166001600160a01b0386811691821790925591518493918716917fddf252ad1be2c89b69c2b068fc378daa952ba7f163c4a11628f55a4df523b3ef91a4505050565b6001600160a01b0382166116e95760405162461bcd60e51b815260206004820181905260248201527f4552433732313a206d696e7420746f20746865207a65726f206164647265737360448201526064016105fa565b6116f281611386565b1561173f5760405162461bcd60e51b815260206004820152601c60248201527f4552433732313a20746f6b656e20616c7265616479206d696e7465640000000060448201526064016105fa565b6001600160a01b03821660009081526003602052604081208054600192906117689084906123e2565b909155505060008181526002602052604080822080546001600160a01b0319166001600160a01b03861690811790915590518392907fddf252ad1be2c89b69c2b068fc378daa952ba7f163c4a11628f55a4df523b3ef908290a45050565b6117cf82611386565b6118325760405162461bcd60e51b815260206004820152602e60248201527f45524337323155524953746f726167653a2055524920736574206f66206e6f6e60448201526d32bc34b9ba32b73a103a37b5b2b760911b60648201526084016105fa565b6000828152600660209081526040909120825161073092840190611e5d565b600081116118a15760405162461bcd60e51b815260206004820152601c60248201527f5072696365206d757374206265206174206c656173742031207765690000000060448201526064016105fa565b60095434146118c25760405162461bcd60e51b81526004016105fa9061234d565b6040805160c081018252838152336020808301828152308486018181526060860188815260006080880181815260a089018281528c8352600b9097529890209651875592516001870180546001600160a01b03199081166001600160a01b03938416179091559151600288018054909316911617905590516003850155935160048401805460ff19169115159190911790555160059092019190915561196891846114f7565b60408051338152306020820152908101829052600060608201819052608082015282907f2d68735082042d66c5027bd8c6f7e29d9eaa7ce21cd00f9671f170b22a091d289060a00160405180910390a25050565b816001600160a01b0316836001600160a01b03161415611a1e5760405162461bcd60e51b815260206004820152601960248201527f4552433732313a20617070726f766520746f2063616c6c65720000000000000060448201526064016105fa565b6001600160a01b03838116600081815260056020908152604080832094871680845294825291829020805460ff191686151590811790915591519182527f17307eab39ab6107e8899845ad3d59bd9653f200f220920489ca2b5937696c31910160405180910390a3505050565b611a968484846114f7565b611aa284848484611bec565b610f155760405162461bcd60e51b81526004016105fa906122fb565b6060611ac982611386565b611b2d5760405162461bcd60e51b815260206004820152602f60248201527f4552433732314d657461646174613a2055524920717565727920666f72206e6f60448201526e3732bc34b9ba32b73a103a37b5b2b760891b60648201526084016105fa565b6000611b4460408051602081019091526000815290565b90506000815111611b645760405180602001604052806000815250610e46565b80611b6e84611cf9565b604051602001611b7f9291906121f6565b6040516020818303038152906040529392505050565b805480611be45760405162461bcd60e51b815260206004820152601b60248201527f436f756e7465723a2064656372656d656e74206f766572666c6f77000000000060448201526064016105fa565b600019019055565b60006001600160a01b0384163b15611cee57604051630a85bd0160e11b81526001600160a01b0385169063150b7a0290611c30903390899088908890600401612225565b602060405180830381600087803b158015611c4a57600080fd5b505af1925050508015611c7a575060408051601f3d908101601f19168201909252611c7791810190612107565b60015b611cd4573d808015611ca8576040519150601f19603f3d011682016040523d82523d6000602084013e611cad565b606091505b508051611ccc5760405162461bcd60e51b81526004016105fa906122fb565b805181602001fd5b6001600160e01b031916630a85bd0160e11b1490506111f2565b506001949350505050565b606081611d1d5750506040805180820190915260018152600360fc1b602082015290565b8160005b8115611d475780611d318161248c565b9150611d409050600a836123fa565b9150611d21565b60008167ffffffffffffffff811115611d7057634e487b7160e01b600052604160045260246000fd5b6040519080825280601f01601f191660200182016040528015611d9a576020820181803683370190505b5090505b84156111f257611daf60018361240e565b9150611dbc600a866124a7565b611dc79060306123e2565b60f81b818381518110611dea57634e487b7160e01b600052603260045260246000fd5b60200101906001600160f81b031916908160001a905350611e0c600a866123fa565b9450611d9e565b6040518060c001604052806000815260200160006001600160a01b0316815260200160006001600160a01b0316815260200160008152602001600015158152602001600081525090565b828054611e6990612451565b90600052602060002090601f016020900481019282611e8b5760008555611ed1565b82601f10611ea457805160ff1916838001178555611ed1565b82800160010185558215611ed1579182015b82811115611ed1578251825591602001919060010190611eb6565b50611edd929150611ee1565b5090565b5b80821115611edd5760008155600101611ee2565b600067ffffffffffffffff80841115611f1157611f116124e7565b604051601f8501601f19908116603f01168101908282118183101715611f3957611f396124e7565b81604052809350858152868686011115611f5257600080fd5b858560208301376000602087830101525050509392505050565b80356001600160a01b0381168114611f8357600080fd5b919050565b600060208284031215611f99578081fd5b610e4682611f6c565b60008060408385031215611fb4578081fd5b611fbd83611f6c565b9150611fcb60208401611f6c565b90509250929050565b600080600060608486031215611fe8578081fd5b611ff184611f6c565b9250611fff60208501611f6c565b9150604084013590509250925092565b60008060008060808587031215612024578081fd5b61202d85611f6c565b935061203b60208601611f6c565b925060408501359150606085013567ffffffffffffffff81111561205d578182fd5b8501601f8101871361206d578182fd5b61207c87823560208401611ef6565b91505092959194509250565b6000806040838503121561209a578182fd5b6120a383611f6c565b9150602083013580151581146120b7578182fd5b809150509250929050565b600080604083850312156120d4578182fd5b6120dd83611f6c565b946020939093013593505050565b6000602082840312156120fc578081fd5b8135610e46816124fd565b600060208284031215612118578081fd5b8151610e46816124fd565b60008060408385031215612135578182fd5b823567ffffffffffffffff81111561214b578283fd5b8301601f8101851361215b578283fd5b61216a85823560208401611ef6565b95602094909401359450505050565b60006020828403121561218a578081fd5b5035919050565b6000602082840312156121a2578081fd5b5051919050565b600080604083850312156121bb578182fd5b50508035926020909101359150565b600081518084526121e2816020860160208601612425565b601f01601f19169290920160200192915050565b60008351612208818460208801612425565b83519083019061221c818360208801612425565b01949350505050565b6001600160a01b0385811682528416602082015260408101839052608060608201819052600090612258908301846121ca565b9695505050505050565b602080825282518282018190526000919060409081850190868401855b828110156122db57815180518552868101516001600160a01b03908116888701528682015116868601526060808201519086015260808082015115159086015260a0908101519085015260c0909301929085019060010161227f565b5091979650505050505050565b602081526000610e4660208301846121ca565b60208082526032908201527f4552433732313a207472616e7366657220746f206e6f6e20455243373231526560408201527131b2b4bb32b91034b6b83632b6b2b73a32b960711b606082015260800190565b60208082526024908201527f5072696365206d75737420626520657175616c20746f206c697374696e6720706040820152637269636560e01b606082015260800190565b60208082526031908201527f4552433732313a207472616e736665722063616c6c6572206973206e6f74206f6040820152701ddb995c881b9bdc88185c1c1c9bdd9959607a1b606082015260800190565b600082198211156123f5576123f56124bb565b500190565b600082612409576124096124d1565b500490565b600082821015612420576124206124bb565b500390565b60005b83811015612440578181015183820152602001612428565b83811115610f155750506000910152565b600181811c9082168061246557607f821691505b6020821081141561248657634e487b7160e01b600052602260045260246000fd5b50919050565b60006000198214156124a0576124a06124bb565b5060010190565b6000826124b6576124b66124d1565b500690565b634e487b7160e01b600052601160045260246000fd5b634e487b7160e01b600052601260045260246000fd5b634e487b7160e01b600052604160045260246000fd5b6001600160e01b03198116811461251357600080fd5b5056fea264697066735822122010e0e295dd319745348a6e7018c843acf5b7b86d3eafc99b3288819556d6251664736f6c63430008040033",
  "linkReferences": {},
  "deployedLinkReferences": {}
}